:020000040000FA
:0400000007EF00F016
:100008005C827EED13F0CEEF11F0000E0101576F08
:10001800000E566F000E556F000E546F000E5E6F87
:10002800000E5D6F000E646F000E636F000E606F50
:10003800000E5F6F000E766F060E756F000E706F04
:10004800000E6F6F000E626F000E616F000E6B6F17
:10005800000E6A6F000E6D6F000E6C6F000E666FFB
:10006800000E656F21EE79F011EE00F04F0EDBCF38
:10007800E3FFE806FCE2000E726F000E716F000EDF
:10008800746F000E736F000E786F010E776F000E9D
:10009800676F000E686F010E586F000E506F000EEC
:1000A800516F000E526F000E536F000E6E6F030EED
:1000B8006E6561EF00F063EF00F065EF00F073EF3D
:1000C80000F0E50E6E25D96EDA6A010EDA22000E0E
:1000D8002DEC14F0DF6E01016E2B5BEF00F0A70E24
:1000E800076E2F0E086EC00E096E06EC12F0B50EE4
:1000F800076E2E0E086E800E096E06EC12F00101D6
:1001080060BF92EF00F0605107E1030E5F5DD8B069
:1001180090EF00F092EF00F073EF03F0010E93EC14
:1001280011F00101E96F76BFA5EF00F0765107E104
:100138000A0E755DD8B0A3EF00F0A5EF00F048EF08
:1001480001F0030E65196611D8A4ADEF00F0AFEF0A
:1001580000F0B5EF00F0000E666F000E656FA3EFBC
:1001680003F06A51456E6B51466E6A4B6B2B46BE67
:10017800C9EF00F0465007E10A0E455CD8B0C7EF5A
:1001880000F0C9EF00F0D1EF00F07551C00F236EF9
:10019800200E81EC14F0E7EF00F0140E6A196B11D1
:1001A800D8A4D9EF00F0DBEF00F0E1EF00F0654BE9
:1001B800662B000E6B6F000E6A6F7551C00F236EB1
:1001C800FF0E81EC14F00B0E0101E919D8A4EFEF32
:1001D80000F0F1EF00F004EF01F07551C00F236E4D
:1001E8002A0E81EC14F0E10E01016C25D96E010E86
:1001F8006D21DA6E300EDF6E6C4B6D2B754B762BE6
:100208000C0EE919D8A40BEF01F00DEF01F020EF67
:1002180001F07551C00F236E2A0E81EC14F0E10E27
:1002280001016C25D96E010E6D21DA6E310EDF6E7B
:100238006C4B6D2B754B762B6F07D8A070076F2909
:1002480006E17029D8A42BEF01F02DEF01F020EF83
:1002580001F083EF00F0E10E6F25D96E010E7021D9
:10026800DA6EE50E6F25E16E010E7021E26EDE504A
:10027800E618D8A442EF01F044EF01F046EF01F090
:10028800634B642B6F4B702B70BF54EF01F07051B0
:1002980009E1040E6F5DD8A054EF01F056EF01F0AC
:1002A8002FEF01F0040E63196411D8A45EEF01F07A
:1002B80060EF01F027EF03F0000E93EC11F001015D
:1002C800696F0B0E6919D8A46CEF01F06EEF01F09D
:1002D80043EF02F0734B742B2D0E731906E174056E
:1002E800D8A479EF01F07BEF01F032EF02F07851FA
:1002F800D8A481EF01F083EF01F08FEF01F07705CB
:10030800D8A489EF01F08BEF01F08FEF01F031EC09
:100318000AF02BEF02F07851D8A495EF01F097EF8F
:1003280001F0A3EF01F07751D8A49DEF01F09FEF02
:1003380001F0A3EF01F0D7EC12F02BEF02F07805F3
:10034800D8A4A9EF01F0ABEF01F0B7EF01F07751B6
:10035800D8A4B1EF01F0B3EF01F0B7EF01F025EC4D
:100368000DF02BEF02F0020E7819D8A4BEEF01F0C1
:10037800C0EF01F0CCEF01F07751D8A4C6EF01F03F
:10038800C8EF01F0CCEF01F014EC07F02BEF02F00E
:10039800030E7819D8A4D3EF01F0D5EF01F0E1EFFF
:1003A80001F07751D8A4DBEF01F0DDEF01F0E1EFC8
:1003B80001F0A4EC03F02BEF02F0030E7819D8A497
:1003C800E8EF01F0EAEF01F0F4EF01F07705D8A4C7
:1003D800F0EF01F0F2EF01F0F4EF01F0C8EF01F0F7
:1003E800020E7819D8A4FBEF01F0FDEF01F007EF3A
:1003F80002F07705D8A403EF02F005EF02F007EF4B
:1004080002F0B3EF01F07805D8A40DEF02F00FEF7A
:1004180002F019EF02F07705D8A415EF02F017EFF4
:1004280002F019EF02F09FEF01F07851D8A41FEF06
:1004380002F021EF02F02BEF02F07705D8A427EFA6
:1004480002F029EF02F02BEF02F08BEF01F0000E23
:100458000101746F000E736F76EF02F02D0E735D5D
:10046800010E7459D8A03BEF02F03DEF02F076EF91
:1004780002F0010E746F2D0E736F76EF02F0735158
:100488007411D8B44AEF02F04CEF02F076EF02F0A4
:100498002C0E735D010E7459D8B055EF02F057EF6A
:1004A80002F076EF02F0000E746F000E736F785151
:1004B800D8A461EF02F063EF02F067EF02F0000EDC
:1004C800786F70EF02F06805D8A46DEF02F06FEF57
:1004D80002F070EF02F07807010E776F010E686F77
:1004E800000E676F0C0E6919D8A47DEF02F07FEF3C
:1004F80002F09FEF02F0714B722B2D0E711906E17D
:100508007205D8A48AEF02F08CEF02F08EEF02F0A9
:10051800A3EF03F02D0E715D010E7259D8A097EF6D
:1005280002F099EF02F0D3EF02F0010E726F2D0E78
:10053800716FD3EF02F071517211D8B4A6EF02F0C7
:10054800A8EF02F0D3EF02F02C0E715D010E725984
:10055800D8B0B1EF02F0B3EF02F0D3EF02F0000E23
:10056800726F000E716F030E7819D8A4BEEF02F0F7
:10057800C0EF02F0C4EF02F0030E786FCDEF02F087
:100588006705D8A4CAEF02F0CCEF02F0CDEF02F075
:10059800782B000E776F010E676F000E686F785129
:1005A800100D000EF324076E010EF420086E820E63
:1005B800096E06EC12F001017851456E466A453A1B
:1005C800463AF00E461645500F0B4612F00E4516E9
:1005D800100E4526000E4622000E4524076E010E19
:1005E8004620086EC20E096E06EC12F0010177056E
:1005F800D8A401EF03F003EF03F015EF03F0600E4A
:10060800076E2F0E086E800E096E06EC12F0B50EFE
:10061800076E2F0E086EC00E096E06EC12F060EF22
:1006280001F0B50E076E2F0E086E800E096E06ECEF
:1006380012F0600E076E2F0E086EC00E096E06ECE3
:1006480012F060EF01F0FD0E076E2E0E086EC00E60
:10065800096E06EC12F001015D4B5E2BC90E5D19A7
:100668005E11D8A43AEF03F03CEF03F040EF03F03B
:10067800000E5E6F000E5D6F614B622BD10E61192B
:1006880007E1070E6219D8A44CEF03F04EEF03F010
:10069800A1EF03F0000E706F000E6F6FA70E076ECC
:1006A8002F0E086EC00E096E06EC12F001015F4BAA
:1006B800602B000E766F060E756F000E646F000ECD
:1006C800636F000E6B6F000E6A6F000E626F000E94
:1006D800616F000E6D6F000E6C6F83EF00F0D80E27
:1006E800076E2F0E086E800E096E06EC12F0C80E0B
:1006F800076E2F0E086EC00E096E06EC12F0400E43
:100708000101596F4B0E5A6F4C0E5B6F000E5C6FF8
:100718005907000E5A5B5B5B5C5B59290AE15A2951
:1007280008E15B2906E15C29D8A49DEF03F09FEF5F
:1007380003F08CEF03F0A3EF03F083EF00F0120057
:10074800000E00016F6F000E6E6F000EA56F060E93
:10075800A46F000E916F000E906F000E9B6F000E3D
:100768009A6F000E816F000E806F000EA76F000E4B
:10077800A66F000E9D6F000E9C6F000E606F000E3E
:10078800616F000E626F000E636F000E646F000EE3
:10079800656F000E666F000E676F000E836F000EA8
:1007A800826F000E8D6F000E8C6F000E696F000E49
:1007B800686F000E936F000E926F000EA96F060E01
:1007C800A86F000E956F000E946F000E9F6F000EBD
:1007D8009E6F000E856F000E846F000EA36F000ED3
:1007E800A26F000E876F000E866FA10E076E2E0E89
:1007F800086E800E096E06EC12F0A70E076E2F0E1B
:10080800086EC00E096E06EC12F0900E00017A6FA9
:100818005F0E7B6F010E7C6F000E7D6F7A07000EF6
:100828007B5B7C5B7D5B7A290AE17B2908E17C297B
:1008380006E17D29D8A423EF04F025EF04F012EF98
:1008480004F027EF04F0010E93EC11F0276E275007
:100858000001926F936BA95107E10A0EA85DD8B009
:1008680038EF04F03AEF04F0CEEF04F09451276E1D
:100878009551286E944B952B285007E10A0E275C5A
:10088800D8B049EF04F04BEF04F053EF04F0A8514F
:10089800C00F236E200E81EC14F067EF04F0140EE5
:1008A80094199511D8A45BEF04F05DEF04F061EFA3
:1008B80004F0000E956F000E946FA851C00F236EC0
:1008C800FF0E81EC14F00B0E000192199311D8A4BD
:1008D80070EF04F072EF04F085EF04F0A851C00F38
:1008E800236E2A0E81EC14F0720E00019E25D96E3B
:1008F800000E9F21DA6E300EDF6E9E4B9F2BA84BA9
:10090800A92B0C0E92199311D8A48DEF04F08FEF38
:1009180004F0A2EF04F0A851C00F236E2A0E81EC58
:1009280014F0720E00019E25D96E000E9F21DA6E1A
:10093800310EDF6E9E4B9F2BA84BA92BC30E836FE6
:10094800500E826F8207D8A08307822906E1832987
:10095800D8A4B1EF04F0B3EF04F0A6EF04F027EF4A
:1009680004F0720EA225D96E000EA321DA6EE50EF0
:10097800A225E16E010EA321E26EDE50E618D8A48E
:10098800C8EF04F0CAEF04F0CCEF04F0844B852BD9
:10099800A24BA32BA35109E1040EA25DD8A0D7EF67
:1009A80004F0D9EF04F0B5EF04F0040E84198511B2
:1009B800D8A4E1EF04F0E3EF04F0F0EF06F0000E46
:1009C800976F000E966F000E716F000E706F000E1D
:1009D800AD6F060EAC6F000E996F000E986F000E8B
:1009E800A16F000EA06F000E6B6F000E6A6F000EF5
:1009F8007F6F000E7E6F000E6D6F000E6C6FDA0E4B
:100A0800076E2E0E086E800E096E06EC12F0A70E09
:100A1800076E2F0E086EC00E096E06EC12F0010E5E
:100A280093EC11F0276E27500001966F976BAD512C
:100A380007E10A0EAC5DD8B024EF05F026EF05F00B
:100A4800A1EF05F09851276E9951286E984B992B74
:100A5800285007E10A0E275CD8B035EF05F037EFCC
:100A680005F03FEF05F0AC51C00F236E200E81EC6E
:100A780014F053EF05F0140E98199911D8A447EF04
:100A880005F049EF05F04DEF05F0000E996F000EE7
:100A9800986FAC51C00F236EFF0E81EC14F00B0E53
:100AA800000196199711D8A45CEF05F05EEF05F0E8
:100AB80071EF05F0AC51C00F236E2A0E81EC14F0D3
:100AC800760E0001A025D96E000EA121DA6E300E37
:100AD800DF6EAC4BAD2BA04BA12B0C0E96199711CA
:100AE800D8A479EF05F07BEF05F08EEF05F0AC5157
:100AF800C00F236E2A0E81EC14F0760E0001A0259B
:100B0800D96E000EA121DA6E310EDF6EAC4BAD2B23
:100B1800A04BA12BC30E716F500E706F7E07D8A02B
:100B28007F077E2906E17F29D8A49DEF05F09FEF76
:100B380005F092EF05F0A5EF05F0000E8D6F010EA0
:100B48008C6F8C518D11D8B4ACEF05F0AEEF05F079
:100B580013EF05F0780E076E2E0E086E800E096EE4
:100B680006EC12F0A70E076E2F0E086EC00E096E67
:100B780006EC12F0010E93EC11F0276E27500001DD
:100B88008E6F8F6BA55107E10A0EA45DD8B0CFEF29
:100B980005F0D1EF05F048EF06F09051276E91511E
:100BA800286E904B912B285007E10A0E275CD8B08D
:100BB800E0EF05F0E2EF05F0EAEF05F0AC51C00F09
:100BC800236E200E81EC14F0FEEF05F0140E901940
:100BD8009111D8A4F2EF05F0F4EF05F0F8EF05F065
:100BE800000E916F000E906FA451C00F236EFF0E80
:100BF80081EC14F00B0E00018E198F11D8A407EFA9
:100C080006F009EF06F01CEF06F0A451C00F236EA2
:100C18002A0E81EC14F0880E00019A25D96E000E78
:100C28009B21DA6E300EDF6EA44BA52B9A4B9B2BC3
:100C38000C0E8E198F11D8A424EF06F026EF06F0BB
:100C480039EF06F0A451C00F236E2A0E81EC14F080
:100C5800880E00019A25D96E000E9B21DA6E310E9E
:100C6800DF6EA44BA52B9A4B9B2BA607D8A0A707F2
:100C7800A62906E1A729D8A444EF06F046EF06F016
:100C880039EF06F0BEEF05F0000EA76F000EA66F55
:100C9800880EA625D96E000EA721DA6E760EA62537
:100CA800E16E000EA721E26EDE50E618D8A45FEFD1
:100CB80006F061EF06F063EF06F0804B812BA64B40
:100CC800A72BA75109E1040EA65DD8A06EEF06F088
:100CD80070EF06F04CEF06F0040E80198111D8A4CD
:100CE80078EF06F07AEF06F0CDEF06F0000EAB6F66
:100CF800000EAA6FABBF8AEF06F0AB5109E1040EF4
:100D0800AA5DD8A08AEF06F08CEF06F08EEF06F009
:100D1800ADEF06F0880EAA25D96E000EAB21DA6E6B
:100D2800DF50236EAA51C80FA1EC13F0880E000102
:100D3800AA25D96E000EAB21DA6EE50EAA25E16E62
:100D4800010EAB21E26EDFCFE7FFAA4BAB2B7EEFA4
:100D580006F0630E076E2F0E086E800E096E06EC05
:100D680012F0520E076E2F0E086EC00E096E06ECBA
:100D780012F000019C4B9D2BF50E9C1906E19D0578
:100D8800D8A4C9EF06F0CBEF06F0EEEF06F013EFAC
:100D980007F01F0E076E2F0E086E800E096E06EC08
:100DA80012F0300E076E2F0E086ED60E096E06EC86
:100DB80012F000019C4B9D2BE90E9C1907E1030ED4
:100DC8009D19D8A4EAEF06F0ECEF06F0EEEF06F076
:100DD800CBEF06F0BEEF05F0740E076E2F0E086E0F
:100DE800800E096E06EC12F0A70E076E2F0E086E25
:100DF800C00E096E06EC12F00001864B872BD10E4F
:100E0800861907E1070E8719D8A40DEF07F00FEF31
:100E180007F027EF04F0000E876F000E866F1200B0
:100E2800000E366E000E376E000E386E000E396EEC
:100E3800000E3A6E000E3B6E000E3C6E000E3D6ECC
:100E4800000E2A6E000E2B6E000E2C6E000E2D6EFC
:100E5800000E2E6E000E2F6E000E306E000E316EDC
:100E6800000E326E000E336E000E346E000E356EBC
:100E7800000E016E010EE0EC13F0000E18EC14F0F9
:100E88003F6E010E18EC14F0406E020E18EC14F0D0
:100E98003E6E3F380F0B0F0B0A0DF3CF41F03F505A
:100EA8000F0B4124416E40380F0B0F0B0A0DF3CF87
:100EB80042F040500F0B4224426E3E380F0B0A0D91
:100EC800F3CF43F03E500F0B4324436E000E446EA5
:100ED8002AC025F02BC026F02CC027F02DC028F002
:100EE8002A2A000E2B222C222D22285027102610C9
:100EF80007E1960E255CD8B084EF07F086EF07F07F
:100F0800A6EF07F0C50E236E43C001F0026A000E7B
:100F1800046E0A0E036E01EC10F00150300F81ECE4
:100F280014F0C60E236E43C001F0026A000E046E70
:100F38000A0E036E63EC10F00150300F81EC14F0D0
:100F4800DEEF07F02D502C102B1009E1970E2A5CCC
:100F5800D8A0B1EF07F0B3EF07F0D6EF07F02D50A8
:100F68002C1009E12C0E2A5C010E2B58D8B0BFEFCB
:100F780007F0C1EF07F0D6EF07F0020E4418D8A427
:100F8800C8EF07F0CAEF07F0D6EF07F0C50E236EDB
:100F9800200E81EC14F0C60E236E200E81EC14F0A6
:100FA800DEEF07F0000E2A6E000E2B6E000E2C6E80
:100FB800000E2D6EC70E236E3A0E81EC14F02EC073
:100FC80025F02FC026F030C027F031C028F02E2A97
:100FD800000E2F223022312228502710261007E138
:100FE800960E255CD8B0FBEF07F0FDEF07F01DEF7C
:100FF80008F0C80E236E42C001F0026A000E046EAB
:101008000A0E036E01EC10F00150300F81EC14F061
:10101800C90E236E42C001F0026A000E046E0A0E69
:10102800036E63EC10F00150300F81EC14F054EFB4
:1010380008F0315030102F1009E1970E2E5CD8A01F
:1010480028EF08F02AEF08F04CEF08F03150301084
:1010580009E12C0E2E5C010E2F58D8B036EF08F09F
:1010680038EF08F04CEF08F04404D8A43EEF08F03D
:1010780040EF08F04CEF08F0C80E236E200E81EC0C
:1010880014F0C90E236E200E81EC14F054EF08F012
:10109800000E2E6E000E2F6E000E306E000E316E9A
:1010A800CA0E236E3A0E81EC14F032C025F033C01C
:1010B80026F034C027F035C028F0322A000E33223B
:1010C8003422352228502710261007E1960E255C79
:1010D800D8B071EF08F073EF08F093EF08F0CB0E7B
:1010E800236E41C001F0026A000E046E0A0E036E00
:1010F80001EC10F00150300F81EC14F0CC0E236E8F
:1011080041C001F0026A000E046E0A0E036E63EC21
:1011180010F00150300F81EC14F0CAEF08F0355090
:101128003410331009E1970E325CD8A09EEF08F016
:10113800A0EF08F0C2EF08F03550341009E12C0E8A
:10114800325C010E3358D8B0ACEF08F0AEEF08F0BF
:10115800C2EF08F04450D8A4B4EF08F0B6EF08F096
:10116800C2EF08F0CB0E236E200E81EC14F0CC0EEB
:10117800236E200E81EC14F0CAEF08F0000E326ED8
:10118800000E336E000E346E000E356E000E93ECBA
:1011980011F0296EB80E076E2F0E086E800E096EBC
:1011A80006EC12F00C0E2918D8A4DDEF08F0DFEFDA
:1011B80008F00AEF09F0010E3626000E3722382211
:1011C8003922C90E3618371038103910D8A4EFEF65
:1011D80008F0F1EF08F0F3EF08F0D6EF09F0395016
:1011E8003810371009E1C90E365CD8A0FEEF08F0B8
:1011F80000EF09F035EF09F0C90E366E000E376EB4
:10120800000E386E000E396E35EF09F03650371083
:1012180038103910D8B413EF09F015EF09F035EF8D
:1012280009F039503810371007E1C80E365CD8B0CD
:1012380020EF09F022EF09F035EF09F0000E366EC5
:10124800000E376E000E386E000E396E442A020EFC
:10125800446431EF09F033EF09F035EF09F0000E7F
:10126800446E040E2918D8A43CEF09F03EEF09F0AB
:1012780075EF09F0010E3A26000E3B223C223D2272
:101288002D0E3A1808E13B043C103D10D8A44FEF4E
:1012980009F051EF09F05BEF09F0000E3A6E000E0D
:1012A8003B6E000E3C6E000E3D6E6CEF07F03D503D
:1012B8003C100BE12D0E3A5C010E3B58D8A067EFAD
:1012C80009F069EF09F073EF09F02D0E3A6E010E7F
:1012D8003B6E000E3C6E000E3D6E6CEF07F06CEF3F
:1012E80007F03A503B103C103D10D8B47EEF09F09F
:1012F80080EF09F06CEF07F03D503C1009E12C0E2F
:101308003A5C010E3B58D8B08CEF09F08EEF09F02B
:101318006CEF07F0000E3A6E000E3B6E000E3C6E4E
:10132800000E3D6E4450D8A49CEF09F09EEF09F0E2
:10133800ABEF09F0412A3B0E4164A5EF09F0A7EF96
:1013480009F06CEF07F0000E416E6CEF07F04404F3
:10135800D8A4B1EF09F0B3EF09F0C0EF09F0422AC1
:101368003B0E4264BAEF09F0BCEF09F06CEF07F0EE
:10137800000E426E6CEF07F0020E4418D8A4C7EFB7
:1013880009F0C9EF09F073EF09F0432A170E436417
:10139800D0EF09F0D2EF09F06CEF07F0000E436EC2
:1013A8006CEF07F041C001F0026A000E046E0A0EED
:1013B800036E63EC10F001503F143F6E41C001F022
:1013C800026A000E046E0A0E036E01EC10F001387A
:1013D800F00B3F103F6E3FC002F0000E65EC14F0BA
:1013E80042C001F0026A000E046E0A0E036E63EC3E
:1013F80010F001504014406E42C001F0026A000E25
:10140800046E0A0E036E01EC10F00138F00B401068
:10141800406E40C002F0010E65EC14F043C001F0CC
:10142800026A000E046E0A0E036E63EC10F001509F
:101438000F0B3E6E43C001F0026A000E046E0A0EE6
:10144800036E01EC10F00150F00B3E103E6E3EC0F2
:1014580002F0020E65EC14F01200A70E076E2F0EB4
:10146800086EC00E096E06EC12F0A70E076E2F0E5E
:10147800086E800E096E06EC12F0300E326E000E09
:10148800336E000E346E000E356E000E366E000E92
:101498002E6E000E2F6E000E306E000E316E000E96
:1014A800376E000E386E000E396E000E3A6EEC0E76
:1014B800076E2E0E086E800E096E06EC12F0C00E36
:1014C800236E300E81EC14F0545009E10B0E535C7E
:1014D800D8A071EF0AF073EF0AF077EF0AF0000E68
:1014E800546E0A0E536E000E2B6E000E2A6E2A5092
:1014F800C20F236E2A5037242DEC14F081EC14F01F
:101508002A4A2B2A2BBE92EF0AF02B5009E10E0E25
:101518002A5CD8A092EF0AF094EF0AF07BEF0AF069
:10152800000E93EC11F0296E53505410D8A49FEF7D
:101538000AF0A1EF0AF0BFEF0AF0410E076E2F0E76
:10154800086EC00E096E06EC12F0010E3326000E6E
:10155800342235223622E90E331809E1030E3418F5
:1015680035103610D8A4BBEF0AF0BDEF0AF094EF9F
:101578000AF0FBEF0BF00C0E2918D8A4C6EF0AF0FE
:10158800C8EF0AF0F5EF0AF0010E3326000E3422F8
:10159800352236222D0E331808E134043510361062
:1015A800D8A4D9EF0AF0DBEF0AF0DDEF0AF0BDEFBF
:1015B8000AF0365035100BE12D0E335C010E34580D
:1015C800D8A0E9EF0AF0EBEF0AF053EF0BF02D0E7D
:1015D800336E010E346E000E356E000E366E53EF0C
:1015E8000BF03350341035103610D8B4FEEF0AF033
:1015F80000EF0BF053EF0BF03650351009E12C0ECD
:10160800335C010E3458D8B00CEF0BF00EEF0BF032
:1016180053EF0BF0000E336E000E346E000E356E75
:10162800000E366E3250256E266A2F0E5324276E12
:10163800000E5420286E2550271807E12650281838
:10164800D8A429EF0BF02BEF0BF046EF0BF053501B
:101658002F0F326E53C001F054C002F0000E046E1A
:101668000E0E036E42EC14F0F20E0124256EFF0EEE
:101678000220266E25C037F026C038F0396A3A6A4B
:1016880053EF0BF0322A0E0E3724376E000E382037
:10169800386E000E3920396E000E3A203A6E0B0E65
:1016A8002918D8A45AEF0BF05CEF0BF089EF0BF078
:1016B800010E2E26000E2F2230223122F50E2E1872
:1016C80008E12F0430103110D8A46DEF0BF06FEF44
:1016D8000BF071EF0BF0D7EF0BF0315030100BE13E
:1016E800F50E2E5C010E2F58D8A07DEF0BF07FEF82
:1016F8000BF0D7EF0BF0F50E2E6E010E2F6E000ECD
:10170800306E000E316ED7EF0BF02E502F103010C8
:101718003110D8B492EF0BF094EF0BF0D7EF0BF039
:101728003150301009E1F40E2E5C010E2F58D8B05C
:10173800A0EF0BF0A2EF0BF0D7EF0BF0000E2E6E20
:10174800000E2F6E000E306E000E316E300E321805
:10175800D8A4B1EF0BF0B3EF0BF0CAEF0BF0375092
:10176800381039103A10D8A4BCEF0BF0BEEF0BF0CC
:10177800CAEF0BF0300E326E000E376E000E386E68
:10178800000E396E000E3A6ED7EF0BF03206F20EED
:101798003724376EFF0E3820386EFF0E3920396E29
:1017A800FF0E3A203A6EC00E236E325081EC14F0D0
:1017B800000E2D6E000E2C6E2C50C20F236E2C5076
:1017C80037242DEC14F081EC14F02C4A2D2A2DBE70
:1017D800F7EF0BF02D5009E10E0E2C5CD8A0F7EFB7
:1017E8000BF0F9EF0BF0E0EF0BF094EF0AF01200BA
:1017F800316E3104D8B403EF0CF005EF0CF017EF9D
:101808000CF0020E3118D8B40CEF0CF00EEF0CF0FF
:1018180017EF0CF0030E3118D8A415EF0CF017EFE2
:101828000CF024EF0DF053C001F054C002F0000E8C
:10183800046E0A0E036EA5EC12F001500210D8A433
:1018480028EF0CF02AEF0CF02CEF0CF0000E586E7D
:10185800000E336E000E326EAE0E3224D96E000EBC
:101868003320DA6EDF50236E5850A1EC13F0582A5B
:10187800324A332A33BE4AEF0CF0335009E1080EDE
:10188800325CD8A04AEF0CF04CEF0CF030EF0CF0C3
:10189800200E236E5850A1EC13F0582A592806E15F
:1018A8005A28D8A45AEF0CF05CEF0CF06AEF0CF051
:1018B800430E236E5850A1EC13F0582A200E236EC5
:1018C8005850A1EC13F0582A9AEF0CF0000E356E20
:1018D800000E346E59C001F05AC002F0000E046EBA
:1018E800030E036E42EC14F0C90E01242B6E010E98
:1018F80002202C6E34502B24D96E35502C20DA6EF1
:10190800DF50236E5850A1EC13F0582A344A352A78
:1019180035BE98EF0CF0355009E1020E345CD8A0C2
:1019280098EF0CF09AEF0CF06EEF0CF0200E236E8F
:101938005850A1EC13F0582AFF0E116E030E126EC8
:10194800000E136E000E146E27C001F028C002F0BE
:1019580029C003F02AC004F0630E056E000E066E5F
:10196800000E076E000E086E3CEC12F001C00DF080
:1019780002C00EF003C00FF004C010F0BBEC10F072
:101988000DC02DF00EC02EF00FC02FF010C030F09B
:101998002DC00DF02EC00EF02FC00FF030C010F08B
:1019A8000A0E116E000E126E000E136E000E146EEB
:1019B800BBEC10F00D50300F236E5850A1EC13F013
:1019C800582AFF0E116E030E126E000E136E000ED3
:1019D800146E27C001F028C002F029C003F02AC005
:1019E80004F0630E056E000E066E000E076E000E04
:1019F800086E3CEC12F001C00DF002C00EF003C0FE
:101A08000FF004C010F0BBEC10F00DC01AF00EC0BF
:101A18001BF00FC01CF010C01DF00A0E1E6E000E49
:101A28001F6E000E206E000E216E0DEC11F01A5084
:101A3800300F236E5850A1EC13F0582A534A542AF9
:101A48001200000E1A6E000E1B6E000E1C6E000EA9
:101A58001D6E000E1F6E000E1E6E53505410D8A43B
:101A680038EF0DF03AEF0DF048EF0DF03D0E026E35
:101A78002E0E036E08EC13F0C80E026E2E0E036EC7
:101A880008EC13F0A7EF0DF03D0E026E2E0E036E5C
:101A980008EC13F0610E026E2E0E036E08EC13F0C4
:101AA800000E216E000E206E8CEF0DF0000E236EDE
:101AB800000E226E0A0E2224D96E000E2320DA6E42
:101AC8001E502DEC14F0DF6E1E4A1F2A224A232ACC
:101AD80023BE78EF0DF0235009E10E0E225CD8A04A
:101AE80078EF0DF07AEF0DF05EEF0DF00A0E186E3C
:101AF8000D0E196EB50E026E2F0E036E08EC13F064
:101B08000A0E026E000E036E08EC13F0204A212A1A
:101B180021BE9AEF0DF0215007E10A0E205CD8B0E3
:101B280098EF0DF09AEF0DF0A7EF0DF05350205CF1
:101B380054502158D8A0A3EF0DF0A5EF0DF05AEF9F
:101B48000DF0A7EF0DF08D0E076E2E0E086E800EAD
:101B5800096E06EC12F0960E076E2F0E086EC00E78
:101B6800096E06EC12F0010E1A26000E1B221C222A
:101B78001D22E90E1A1809E1030E1B181C101D106E
:101B8800D8A4C9EF0DF0CBEF0DF0A7EF0DF01200C0
:101B980074EC14F0000E4C6E010E4B6E51EC11F00B
:101BA800010E93EC11F04D6E0B0E4D18D8A4DFEF1B
:101BB8000DF0E1EF0DF00CEF0EF04C50D8A4E7EF6C
:101BC8000DF0E9EF0DF00CEF0EF04D5009EC00F0C0
:101BD800A70E076E2F0E086EC00E096E06EC12F0E7
:101BE80059C001F05AC002F0000E046E030E036ED5
:101BF80042EC14F0C90E0124076E010E0220086E93
:101C0800CA0E096E06EC12F0010E4C6E17EF0EF0BC
:101C18000B0E4D18D8A413EF0EF015EF0EF017EFBA
:101C28000EF0000E4C6E4B04D8A41DEF0EF01FEF03
:101C38000EF027EF0EF0F60E076E2F0E086ECA0E86
:101C4800096E06EC12F0E80E076E2F0E086E800E75
:101C5800096E06EC12F04D28D8B435EF0EF037EFC8
:101C68000EF039EF0EF0000E4B6E4D5072EC0EF088
:101C7800B5EC14F0040E5BEC13F001C047F002C0A1
:101C880048F0496A4A6A47C025F048C026F049C06A
:101C980027F04AC028F080EC0FF047C027F048C072
:101CA80028F049C029F04AC02AF04D50FCEC0BF04E
:101CB800592806E15A28D8A464EF0EF066EF0EF012
:101CC800D2EF0DF0FB0E076E2F0E086ECA0E096ECE
:101CD80006EC12F0D2EF0DF007EF00F00A6E0A04DE
:101CE800D8A479EF0EF07BEF0EF087EF0EF0FC0E24
:101CF800076E2F0E086ECA0E096E06EC12F05968B0
:101D08005A68FBEF0EF0020E0A18D8A48EEF0EF0F8
:101D180090EF0EF0C8EF0EF0060E59185A10D8A41E
:101D280098EF0EF09AEF0EF0A0EF0EF0000E5A6E3C
:101D3800060E596EB2EF0EF0070E59185A10D8A4B5
:101D4800A8EF0EF0AAEF0EF0B0EF0EF0000E5A6EEC
:101D5800000E596EB2EF0EF0594A5A2A59C001F0D6
:101D68005AC002F0000E046E030E036E42EC14F02B
:101D7800C90E0124076E010E0220086ECA0E096EF4
:101D880006EC12F0FBEF0EF0030E0A18D8A4CFEF02
:101D98000EF0D1EF0EF0FBEF0EF059505A10D8A408
:101DA800D8EF0EF0DAEF0EF0DCEF0EF0AAEF0EF03F
:101DB800592808E15A28D8B4E4EF0EF0E6EF0EF0FF
:101DC800F0EF0EF0070E59185A10D8A4EEEF0EF0E7
:101DD800F0EF0EF0F6EF0EF0000E5A6E070E596E89
:101DE800B2EF0EF05906D8A05A06B2EF0EF0120064
:101DF800819A818C818E81B204EF0FF006EF0FF08B
:101E080009EF0FF0010E7FEF0FF081B40EEF0FF026
:101E180010EF0FF013EF0FF0040E7FEF0FF081B605
:101E280018EF0FF01AEF0FF01DEF0FF0070E7FEF0E
:101E38000FF081B822EF0FF024EF0FF027EF0FF02B
:101E48000A0E7FEF0FF0818A819C818E81B22FEF7D
:101E58000FF031EF0FF034EF0FF0020E7FEF0FF0BD
:101E680081B439EF0FF03BEF0FF03EEF0FF0050EA6
:101E78007FEF0FF081B643EF0FF045EF0FF048EF1B
:101E88000FF0080E7FEF0FF081B84DEF0FF04FEF16
:101E98000FF052EF0FF00B0E7FEF0FF0818A818C5D
:101EA800819E819E81B25BEF0FF05DEF0FF060EFD6
:101EB8000FF0030E7FEF0FF081B465EF0FF067EFBF
:101EC8000FF06AEF0FF0060E7FEF0FF081B66FEF9D
:101ED8000FF071EF0FF074EF0FF0090E7FEF0FF0B6
:101EE80081B879EF0FF07BEF0FF07EEF0FF00C0E5B
:101EF8007FEF0FF0FF0E1200FF0E116E030E126E31
:101F0800000E136E000E146E25C001F026C002F0FC
:101F180027C003F028C004F0630E056E000E066E9D
:101F2800000E076E000E086E3CEC12F001C00DF0BA
:101F380002C00EF003C00FF004C010F0BBEC10F0AC
:101F48000DC029F00EC02AF00FC02BF010C02CF0E5
:101F5800CE0E236E29C00DF02AC00EF02BC00FF054
:101F68002CC010F00A0E116E000E126E000E136EC9
:101F7800000E146EBBEC10F00D50300F81EC14F015
:101F8800CF0E236EFF0E116E030E126E000E136E2F
:101F9800000E146E25C001F026C002F027C003F021
:101FA80028C004F0630E056E000E066E000E076E64
:101FB800000E086E3CEC12F001C00DF002C00EF0ED
:101FC80003C00FF004C010F0BBEC10F00DC01AF005
:101FD8000EC01BF00FC01CF010C01DF00A0E1E6EC4
:101FE800000E1F6E000E206E000E216E0DEC11F01B
:101FF8001A50300F81EC14F01200000E066E04BE69
:102008000AEF10F008EF10F010EF10F0036C041E48
:10201800D8B0042A010E066E02BE17EF10F015EFB5
:1020280010F01DEF10F0016C021ED8B0022A010E4C
:10203800061A000E086E000E076E03500410D8B47E
:1020480028EF10F02AEF10F052EF10F0010E056E95
:1020580032EF10F0D89003360436052A04AE37EF75
:1020680010F039EF10F02EEF10F0D8900736083640
:102078000350015C04500258D8A045EF10F047EF18
:1020880010F04CEF10F00350015E0450025A078024
:10209800D89004320332052E39EF10F00650D8B428
:1020A80058EF10F05AEF10F05EEF10F0076C081EB2
:1020B800D8B0082A07C001F008C002F01200000ECC
:1020C800066E02BE6CEF10F06AEF10F072EF10F0BF
:1020D800016C021ED8B0022A010E066E04BE79EF0A
:1020E80010F077EF10F07DEF10F0036C041ED8B0FD
:1020F800042A03500410D8B484EF10F086EF10F0CF
:10210800AAEF10F0010E056E8EEF10F0D89003368E
:102118000436052A04AE93EF10F095EF10F08AEF1D
:1021280010F00350015C04500258D8A09EEF10F044
:10213800A0EF10F0A4EF10F00350015E0450025A13
:10214800D89004320332052E95EF10F00650D8B41B
:10215800B0EF10F0B2EF10F0B6EF10F0016C021E05
:10216800D8B0022A01C001F002C002F01200000E2D
:10217800156E000E166E000E176E000E186E1150BA
:10218800121013101410D8B4CCEF10F0CEEF10F0DA
:1021980004EF11F0010E196ED8EF10F0D890113637
:1021A800123613361436192A14AEDDEF10F0DFEFAD
:1021B80010F0D2EF10F0D8901536163617361836BC
:1021C80011500D5C12500E5813500F5814501058DF
:1021D800D8A0F1EF10F0F3EF10F0FCEF10F0115071
:1021E8000D5E12500E5A13500F5A1450105A158083
:1021F800D8901432133212321132192EDFEF10F048
:1022080015C00DF016C00EF017C00FF018C010F072
:1022180012001E501F1020102110D8B416EF11F014
:1022280018EF11F048EF11F0010E226E22EF11F0B5
:10223800D8901E361F3620362136222A21AE27EFA7
:1022480011F029EF11F01CEF11F01E501A5C1F500D
:102258001B5820501C5821501D58D8A036EF11F09B
:1022680038EF11F040EF11F01E501A5E1F501B5A44
:1022780020501C5A21501D5AD890213220321F322A
:102288001E32222E29EF11F01AC01AF01BC01BF0C3
:102298001CC01CF01DC01DF01200020E18EC14F03A
:1022A8004E6E010E18EC14F04F6E000E18EC14F080
:1022B800506E4EAC62EF11F064EF11F070EF11F058
:1022C8004E380F0B010B300F0001AE6F4E500F0B45
:1022D800300FAF6F7AEF11F04E380F0B0F0B300F36
:1022E8000001AE6F4E500F0B300FAF6F3A0EB06F4C
:1022F8004F380F0B0F0B300FB16F4F500F0B300FC4
:10230800B26F3A0EB36F50380F0B0F0B300FB46F1C
:1023180050500F0B300FB56F000EB66F1200016EE4
:102328000104D8A49AEF11F09CEF11F0C0EF11F05E
:10233800FCEC0EF0576E5728D8B4A5EF11F0A7EFB4
:1023480011F0B4EF11F05B50D8B4ADEF11F0AFEF6E
:1023580011F0B4EF11F0000E5B6E5750CDEF11F095
:102368005728D8A4BAEF11F0BCEF11F0CCEF11F058
:10237800010E5B6ECCEF11F00150D8A4C6EF11F03E
:10238800C8EF11F0CCEF11F0FCEC0EF0CDEF11F02E
:10239800FF0E1200E20EF66E240EF76E000EF86EB7
:1023A80001EE79F010EE68F00900F5CFEEFFE55088
:1023B800E150FAE1B00EF66E290EF76E000EF86ED7
:1023C8000900F5CF59F00900F5CF5AF00900F5CF0B
:1023D8005BF001EEE1F0090EEE6AE806FDE100EEC1
:1023E800AEF0090EEE6AE806FDE100EE4EF00B0EC7
:1023F800EE6AE806FDE15C905C92000EF86E000162
:10240800CCEF0DF0000E016E0950E0EC13F023EF55
:1024180012F0010E016E07C0F6FF08C0F7FFF86A58
:10242800050EF76403D00800F55005D0F6CFE9FF94
:10243800F7CFEAFFEF50E0EC13F0074A082A07C08D
:10244800F6FF08C0F7FFF86A050EF76403D0080026
:10245800F55005D0F6CFE9FFF7CFEAFFEF500009B6
:10246800D8A439EF12F03BEF12F00DEF12F0120082
:10247800000E096E000E0A6E000E0B6E000E0C6E3A
:1024880001A049EF12F04BEF12F053EF12F0055094
:10249800092606500A2207500B2208500C22D89011
:1024A8000536063607360836D8900432033202322B
:1024B80001320150021003100410D8A466EF12F084
:1024C80068EF12F044EF12F009C001F00AC002F000
:1024D8000BC003F00CC004F0120031205669657778
:1024E800204C6F672020202000003220436C65615B
:1024F80072204C6F6720202000003320446F776ED5
:102508006C6F6164204C6F67000034205365742041
:1025180054696D6520202020000035204368616ED5
:1025280067652050617373776420474E00475200F7
:1025380047310047320047330047340000000000AD
:10254800000003500410D8B4ACEF12F0AEEF12F054
:10255800D2EF12F0010E056EB6EF12F0D8900336E6
:102568000436052A04AEBBEF12F0BDEF12F0B2EF4D
:1025780012F00350015C04500258D8A0C6EF12F0C4
:10258800C8EF12F0CCEF12F00350015E0450025A6B
:10259800D89004320332052EBDEF12F001C001F0CD
:1025A80002C002F01200000E546E000E536E000EB0
:1025B8000A6E000E0B6E000E0C6E000E0D6E0E0EE7
:1025C800076E2F0E086E800E096E06EC12F0850E4F
:1025D800076E2F0E086EC00E096E06EC12F0010E83
:1025E8000A26000E0B220C220D22E90E0A1809E118
:1025F800030E0B180C100D10D8A405EF13F007EFFD
:1026080013F0E3EF12F012001EEF13F002C0F6FF12
:1026180003C0F7FFF86A050EF76403D00800F55009
:1026280005D0F6CFE9FFF7CFEAFFEF5098EC14F0AA
:10263800024A032A02C0F6FF03C0F7FFF86A050E34
:10264800F76403D00800F55005D0F6CFE9FFF7CFBF
:10265800EAFFEF500009D8A434EF13F036EF13F077
:102668000AEF13F01200000E18EC14F0046E045078
:102678008009026E000E65EC14F0020E18EC14F0DE
:10268800046E0450400B026E020E65EC14F0930EBB
:10269800026E070E65EC14F0000E18EC14F0046ED0
:1026A80004507F0B026E000E65EC14F01200076EEA
:1026B80007C003F0D8900336D8900336C250C30B36
:1026C8000310C26EC282C2B26CEF13F06EEF13F049
:1026D80067EF13F0C350C4CF03F0046A03C004F0DB
:1026E800036A0310056E0450066E05C001F006C0AB
:1026F80002F012000600F2A484EF13F086EF13F044
:102708009FEF13F0080ED624D66E000ED720D76E92
:10271800554A562A210E551807E14E0E5618D8A4C8
:1027280098EF13F09AEF13F09EEF13F0000E566E29
:10273800000E556EF2945C921100266ED4EC14F0E3
:10274800A00EBEEC14F02650BEEC14F02350BEECE4
:1027580014F0D0EC14F00B0E256EB80E246E24067F
:10276800D8A02506242806E12528D8A4BEEF13F012
:10277800C0EF13F0B3EF13F01200948E949CAC9E4C
:10278800AC9CAC8AAC98AC96AC84AC92AC90AB8E5A
:10279800AB9CAB9AAB88AB96AB94AB92AB90B89E24
:1027A800B88CB898B896B892B890810EAF6E9D88DC
:1027B8009E989D8A9E9A1200026E01B0E6EF13F071
:1027C800E9EF13F08282EAEF13F0829202C083FFEE
:1027D80082848294958E828082928284829483BE3F
:1027E800F8EF13F0FAEF13F0F1EF13F08290959EE3
:1027F8001200000E956E9450F80B946E8290000EA5
:10280800016E020EE0EC13F0000E016E380EE0ECE3
:1028180013F0000E016E0C0EE0EC13F0000E016ECA
:10282800010EE0EC13F01200026ED4EC14F0D00E9E
:10283800BEEC14F00250BEEC14F0C4EC14F0D10E4F
:10284800BEEC14F0C8EC14F0036ED0EC14F0035096
:102858001200026ED4EC14F0A00EBEEC14F002507C
:10286800BEEC14F0C4EC14F0A10EBEEC14F0C8ECED
:1028780014F0036ED0EC14F0035012000150030260
:10288800F3CF05F0F4CF06F001500402F35006260A
:1028980002500302F350062605C001F006C002F0FC
:1028A8001200C08EC08AC098C096C090C082C094E2
:1028B800C292C19AC198000EC46E000EC36EC28047
:1028C8001200036ED4EC14F0D00EBEEC14F00350DA
:1028D800BEEC14F00250BEEC14F0D0EC14F0120070
:1028E800FDEC13F08DEC14F037EC13F055EC14F00C
:1028F800A3EC14F0C1EC13F01200246E000E016E6C
:102908002350E0EC13F0010E016E2450E0EC13F0BC
:10291800120094869488280EC66E310EC86EC79C25
:10292800C78E9E96A1961200016E9EA89EEF14F087
:10293800A0EF14F099EF14F001C0ADFF12000F0ED4
:10294800C16E1E0E936EF19E8150E009816E1200D9
:102958009EA6B1EF14F0B3EF14F0ACEF14F09E960E
:102968001200AE0E076E000E086EC00E096E06EC61
:1029780012F01200016E01C0C9FFACEC14F0120095
:10298800C582ACEC14F01200CCEC14F0C950120063
:10299800C586ACEC14F01200C584ACEC14F012003F
:0B29A800C580ACEC14F01200FFFF0132
:102E3C0000446F776E6C6F616465642044657461E7
:102E4C00696C732066726F6D20426C6F636B2042ED
:102E5C006F780A0D00202054696D652020202020F9
:102E6C004765617220537064200A0D0052656E74C0
:102E7C006572206E65772050617373776F72643A58
:102E8C0000446F776E6C6F6164204C6F673A202042
:102E9C002020202000456E746572204F6C642050F9
:102EAC00617373776F72643A00456E74657220506B
:102EBC00617373776F72643A202020004C6F6773D4
:102ECC002041726520456D707479210A0D00456EA4
:102EDC007465722050617373776F72643A202000AE
:102EEC004C6F67733A2020202020202020202020A7
:102EFC000054727920616761696E202020202020A7
:102F0C002000436C656172204C6F673A20202020B2
:102F1C002020002020202050617373776F72642072
:102F2C002020200020204E6F74204D617463686552
:102F3C0064202020002020204C6F677320456D708A
:102F4C007479202020002A2A537563636573736695
:102F5C00756C6C2A2A2000205061737377642043AF
:102F6C0068616E67656420002057726F6E67205031
:102F7C00617373776F726420004C6F6773204172BA
:102F8C006520436C65617265640020556172742024
:102F9C005375636365737366756C00202020202065
:102FAC002020202020202020202020005365742069
:102FBC0054696D653A2020202020200020202020FC
:102FCC002033204D494E20202020200054525920DF
:102FDC00414741494E204146544552002020544916
:102FEC004D4520204556205350004F4E2020002D9B
:042FFC00432000006E
:020000040020DA
:08000000FFFFFFFFFFFFFFFF00
:020000040030CA
:0E000000FF071F1FFF8285FF0FC00FE00F409C
:00000001FF
